:020000040800F2
:10000000C00800209D0100081327000835250008BE
:1000100011270008FB070008FD370008000000005A
:10002000000000000000000000000000172700088A
:10003000AD08000800000000152700081927000877
:10004000B7010008B7010008B7010008B7010008B0
:10005000B7010008B7010008B7010008B7010008A0
:10006000B7010008B7010008B7010008B701000890
:10007000B7010008B7010008B7010008B701000880
:10008000B7010008B7010008B7010008B701000870
:10009000B7010008B7010008B7010008B701000860
:1000A000B7010008B7010008B7010008B701000850
:1000B000B7010008B7010008B7010008B701000840
:1000C000B7010008B7010008B7010008B701000830
:1000D000B7010008E5370008F1370008B70100084C
:1000E000B7010008B7010008B7010008B701000810
:1000F000B7010008B7010008B7010008B701000800
:10010000B7010008B7010008B7010008B7010008EF
:10011000B7010008B7010008C1270008B7010008AF
:10012000B7010008B7010008FD070008B701000883
:10013000B7010008B7010008B7010008B7010008BF
:10014000B7010008B7010008B7010008B7010008AF
:10015000B7010008B7010008B7010008B70100089F
:10016000B7010008B7010008B7010008B70100088F
:10017000B7010008B7010008B7010008000000003F
:10018000B7010008B7010008DFF80CD000F0F8FA5A
:10019000004800473D380008C00800200648804756
:1001A00006480047FEE7FEE7FEE7FEE7FEE7FEE75C
:1001B000FEE7FEE7FEE7FEE7B12700088901000839
:1001C0002DE9F05F0546002092469B46884606468C
:1001D000814640241BE0284641464746224600F01F
:1001E00050FA53465A46C01A914110D31146184648
:1001F000224600F037FA2D1A67EB01084F462246D7
:100200000120002100F02EFA17EB00094E41201EBC
:10021000A4F10104DFDC484631462A464346BDE8E6
:10022000F09FD2B201E000F8012B491EFBD27047CB
:100230000022F6E710B513460A4604461946FFF7B2
:10024000F0FF204610BD2DE9FE4F804681EA0300F5
:10025000C00F0C46009021F0004123F00045B8EBA0
:100260000200A94105D24046214690461C460B4655
:10027000024623F00040104347D0270DC7F30A0081
:10028000C3F30A510290401A019040286BDAC3F37D
:10029000130040F4801B0098924620B10023D2EB5B
:1002A000030A63EB0B0B01985946C0F1400250461C
:1002B00000F0D8F906460D4650465946019A00F01E
:1002C000F0F910EB08006141002487EA115284EA3A
:1002D000E7731A4340D0009A62B3019A012A4FEAA9
:1002E000075215DC001B61EB02014FF0004202EAED
:1002F0000752CDE90042001C41F5801132462B46E1
:1003000000F0F0F903B0BDE8F08F40462146F9E770
:10031000001B61EB0201001C41F5801300185B41DA
:100320002018A2F5001747EB030140EAD570B61973
:100330006D4111E06D084FEA360645EAC0754FEA97
:100340000752001B61EB0201001C41F580114908B6
:100350004FEA30000019514132462B4603B0BDE848
:10036000F04F00F0B0B90098012240000023D0EB1C
:10037000020263EBE073009821464FEAE074B8EBA9
:10038000000061EB0401E9E783F000435BE781F0E3
:10039000004158E72DE9FE4F81EA030404F00044D0
:1003A00021F0004100944FF0000B23F0004350EA8D
:1003B00001045ED052EA03045BD0C3F30A54C1F3D4
:1003C0000A552C44A4F2F3340194A0FB0254C1F367
:1003D000130141F48011C3F3130343F4801301FBB1
:1003E000024400FB034E840A970A44EA815447EA18
:1003F0008357A4FB076802958D0A05FB07854FEA22
:10040000932C04FB0C542705029D4FEA065847EA3B
:100410001637B5EB08056EEB070C870E920E47EA10
:10042000811742EA8312A7FB0201B6EB0B0164EBD2
:1004300000042B0D43EA0C335E1844EB1C50DA46E3
:100440005146E7FB0201C5F313044FEA0B3343EABD
:1004500014534FEA0432019C43EA0603A4F10C044E
:100460000294009CCDE900B400F03CF903B0BDE873
:10047000F08F00200146F9E72DE9F04D81EA0304F1
:1004800004F0004B21F0004514464FF0000A23F021
:10049000004150EA050220D054EA01021DD0C5F304
:1004A0000A570246C5F31303C1F31300C1F30A56FA
:1004B00040F4801543F48013A7EB0608101BD646C2
:1004C00008F2FD3873EB050002D308F1010801E0E2
:1004D00092185B41B8F1000F03DA00200146BDE835
:1004E000F08D00204FF48011064684460EE0171B65
:1004F00073EB050705D3121B63EB050306434CEAB8
:10050000010C49084FEA300092185B4150EA01079C
:10051000EDD152EA030012D082EA040083EA050119
:10052000084305D0101BAB4106D20122002306E090
:1005300000224FF0004302E06FF0010253101AEB6B
:1005400006004CEB085110EB0A0041EB0B01BDE833
:10055000F04D00F0B8B80EB5C10F80EAE070084465
:10056000CA07002140F233438DE80E000A460B46CD
:1005700000F0B8F803B000BD0EB540F2334102916F
:100580000021CDE900110A460B4600F0ABF803B09C
:1005900000BD70B5C1F30A5201F000450024C1F35B
:1005A000130140F2FF3341F480119A4201DA002036
:1005B00070BD40F233439A42A2F2334203DC52420E
:1005C00000F05FF800E090402C43F1D0404270BD55
:1005D000C1F30A5210B5C1F3130140F2FF3341F4E5
:1005E00080119A4201DA002010BD40F233439A4252
:1005F000A2F2334203DC524200F043F810BD9040B7
:1006000010BD000030B5041E71F1000404DB4FF092
:100610000044404264EB0101141E73F1000405DB49
:100620001C464FF00043524263EB04038B4208BF69
:10063000824230BD30B5041E71F1000404DB4FF07E
:100640000044404264EB0101141E73F1000405DB19
:100650001C464FF00043524263EB0403994208BF2B
:10066000904230BD202A04DB203A00FA02F100203B
:1006700070479140C2F1200320FA03F319439040E0
:100680007047202A04DB203A21FA02F0002170474B
:1006900021FA02F3D040C2F12002914008431946EA
:1006A0007047202A06DBCB17203A41FA02F043EAD2
:1006B000E07306E041FA02F3D040C2F1200291401B
:1006C00008431946704710B5141E73F1000408DA88
:1006D000401C41F1000192185B411A4301D120F006
:1006E000010010BD2DE9F04D92469B4611B1B1FAC3
:1006F00081F202E0B0FA80F220329046FFF7B2FFBA
:1007000004460F4640EA0A0041EA0B0153465A46A6
:10071000084313D0114653EA010019D0C8F1400232
:100720005046FFF7AEFF05460E4650465946424634
:10073000FFF798FF084305D0012004E02046394622
:10074000BDE8F08D0020054346EAE0762C433743B0
:100750000A986305E40AA0EB08000022FD0A44EAB7
:1007600047540A3002D500200146E9E70105101977
:100770006941DDE9084500196941BDE8F04DA2E78E
:10078000064C074D06E0E06840F0010394E80700DE
:1007900098471034AC42F6D3FFF7FAFCA0390008B2
:1007A000C039000870B58C1810F8015B15F007030C
:1007B00001D110F8013B2A1106D110F8012B03E0FA
:1007C00010F8016B01F8016B5B1EF9D12B0705D402
:1007D0000023521E0DD401F8013BFAE710F8013B4B
:1007E000CB1A921C03E013F8015B01F8015B521E67
:1007F000F9D5A142D8D3002070BDFEE7014800F032
:10080000B1B800006004002001681823CAB2103A91
:10081000B2FBF3F2054B6FF30901032A9B5CC3653E
:1008200000D9091D8165084670470000803900081D
:1008300010B5014600208B698A6A4FF0C07453B12D
:10084000B3F5005F15D072B1012A0CD0022A0AD08C
:10085000032A09D104E01AB1012A06D0022A03D1E1
:10086000C96AC90100D5012010BDC96AA142FAD0E8
:1008700010BD002AF7D0012AF2D0022AF3D0032AB1
:10088000F3D010BD30B50468256825F480252560B7
:10089000046863608368402B036803D09960006834
:1008A000C26030BD9A600068C16030BD704772B6EA
:1008B000FEE72DE9F0410446876D00F0C1FA0646D7
:1008C00094F835000025022806D08020606584F861
:1008D00034500120BDE8F0812068016821F0160144
:1008E00001602068416921F080014161206C08B9F4
:1008F000A06C20B12068016821F008010160206827
:10090000016821F0010101600BE000F099FA801B01
:10091000052806D92020606504F8345F0320607044
:10092000D8E720680068C007EFD194F85C103F203A
:100930008840B86004F8345F012060700020C9E787
:1009400090F83510022903D08021416501207047BD
:10095000052180F835100068016821F0010101606F
:10096000002070472DE9F84304464FF00009CDF808
:10097000009063484FF41651A56D0068B0FBF1F785
:100980002E6894F85C10082000FA01F131420FD073
:1009900021680A6852070BD50A6822F004020A602F
:1009A00094F85C108840A860606D40F001006065BC
:1009B00094F85C104FF0010808FA01F0304208D0BA
:1009C00021684969090604D5A860606D40F00200FD
:1009D000606594F85C1004208840304208D021689B
:1009E0000968890704D5A860606D40F0040060655F
:1009F00094F85C1010208840304218D021680968B3
:100A0000090714D5A86020680168490304D5006867
:100A1000000308D5A16C07E00168C90503D401688B
:100A200021F008010160216C09B12046884794F843
:100A30005C1020208840304231D021680968C90606
:100A40002DD5A86094F8350005282068016806D0E7
:100A5000490347D5006800031DD4616C1CE021F0F8
:100A6000160101602068416921F080014161206C1C
:100A700008B9A06C20B12068016821F0080101606C
:100A800094F85C103F208840A86084F8349084F883
:100A90003580216D1FE0E16B09B120468847606D0C
:100AA00000282BD0606DC00714D0052084F83500D5
:100AB0002068016821F0010101600098401C00904D
:100AC000B84203D820680068C007F6D184F8349093
:100AD00084F83580E16C002910D001B02046BDE8D3
:100AE000F04308470168C905D5D4016821F0100119
:100AF000016084F8349084F83580CCE7BDE8F88351
:100B0000400200202DE9F041044600F099F9064624
:100B10005CB1002584F83450022084F83500206848
:100B2000016821F0010101600DE00120BDE8F081C4
:100B300000F086F9801B052805D920206065032078
:100B400084F83500F2E720680068C007F0D1226819
:100B5000116820480140D4E901031843D4E9033661
:100B60003343184363691843A3691843E36918437F
:100B7000236A18430843616A042903D1D4E90B139B
:100B800019430843106020684069666A20F0070135
:100B900030460E43012704280CD1A06A0643E06AC0
:100BA00040B12046FFF744FE20B14020606584F844
:100BB0003570BAE7206846612046FFF725FE94F8B5
:100BC0005C203F2191408160656584F8357000208C
:100BD000ACE700003F8010F02DE9F0410446866D3F
:100BE00090F83400002501280DD0012084F834004D
:100BF00094F835700020012F07D084F834000225C6
:100C00002846BDE8F0810220FBE7022784F8357012
:100C100060652046FFF736FE94F85C103F20884060
:100C2000B0602068016841F016010160206C20B1BD
:100C30002068016841F0080101602068016841F006
:100C400001010160DCE700002DE9F84FDFF8B8A1F1
:100C5000002201250AF1040B03264FF00F090BF1C6
:100C6000040E00BF0B6805FA02F42340A3426FD1C3
:100C70000F7907F00307012F01D0022F16D18768E3
:100C80004FEA420806FA08FC27EA0C07D1F80CC024
:100C90000CFA08FC4CEA070CC0F808C04768A743E8
:100CA0000C79C4F3001494403C4344600C79E44351
:100CB000A4070AD0C4684FEA420C06FA0CF7BC43FA
:100CC0008F6807FA0CF72743C7600C7904F0030418
:100CD000022C12D1D40800EB840CDCF8204057071A
:100CE000FF0E09FA07F824EA0804D1F8108008FA80
:100CF00007F848EA0408CCF8208004684FEA420C60
:100D000006FA0CF7BC430F7907F0030707FA0CF754
:100D1000274307604C68E40070D53C4C276847F4D3
:100D200080472760246822F0030704F4804400947D
:100D3000374C07EB040CDCF8084897074FEA1778A4
:100D400009FA08F7BC43334FB84202D1002724E028
:100D500054E0314FB84201D101271EE02F4FB84275
:100D600001D1022719E02E4FB84201D1032714E028
:100D70002C4FB84201D104270FE02B4FB84201D1CC
:100D800005270AE0294FB84201D1062705E0284F80
:100D9000B84201D1072700E0082707FA08F72743E0
:100DA000CCF80878DAF800405746D1F804C09C43E4
:100DB0005FEACC3C00D51C433C60DBF800405F465A
:100DC000D1F804C09C435FEA8C3C00D51C433C60D6
:100DD000DEF800407746D1F804C09C435FEACC2C93
:100DE00000D51C433C60084F0C373C68D1F804C068
:100DF0009C435FEA8C2C00D51C433C60521C102A9B
:100E0000FFF430AFBDE8F88F003C014044380240A9
:100E1000003001400000024000040240000802408F
:100E2000000C024000100240001402400018024072
:100E3000001C02400AB1816170470904FBE7000011
:100E40000148806870470000340200200248816831
:100E50000278114481607047340200200B4810B5BD
:100E6000016841F400710160016841F48061016032
:100E7000016841F480710160032000F06FF80020E8
:100E800000F006F800F024F8002010BD003C0240FD
:100E900070B50D4D04464FF47A712878B1FBF0F02F
:100EA0000A490968B1FBF0F000F00AFB48B9102CC0
:100EB00007D200222146501E00F030F800206C605E
:100EC00070BD012070BD00003402002040020020EF
:100ED0000A4808B5016841F480410160006800F4E7
:100EE000804000900548001F016841F0805101607A
:100EF000006800F08050009008BD000044380240B7
:100F0000002809DB00F01F02012191404009800008
:100F100000F1E020C0F8001170470000F0B40E4B63
:100F20001B680C46C3F30223C3F10705042D00D947
:100F30000425191D072901D2002300E0DB1E01262C
:100F400006FA05F1491E214099409E40761E164042
:100F50003143F0BC02F053BC0CED00E0064900F058
:100F6000070208684FF6FF03184040EA0220034AD0
:100F700010430860704700000CED00E00000FA0527
:100F80002DE9F0470E46050065D0DFF81481D8F84A
:100F90000000F7B200F00700B04207D288F80070F6
:100FA000D8F8000000F00700B04254D128683D4C4A
:100FB000810712D5400703D5206840F4E050206037
:100FC0002878000703D5206840F46040206020683E
:100FD000A96820F0F000084320602878C0072DD0D1
:100FE000304968680839012812D0022813D0032834
:100FF00011D00968890700292DDA216821F0030141
:1010000001432160FFF71CFF814641F2883A0EE060
:1010100009688903EFE709688901ECE7FFF710FF2A
:10102000A0EB0901514502D90320BDE8F0872068F3
:10103000696800F00C00B0EB810FEFD1D8F8001018
:10104000404601F00701B14207D90770006800F07F
:101050000700B04201D00120E7E72878400705D516
:101060002068E96820F4E0500843206028780007F1
:1010700006D52068296920F4604040EAC10020605C
:1010800000F038F82168084AC1F30311515CC840E8
:101090000649086006480068FFF7FAFE0020C4E72A
:1010A000003C024008380240883900084002002015
:1010B000380200200448054900680968044AC1F361
:1010C0008221515CC840704740020020083802402D
:1010D000983900080448054900680968044AC1F3C2
:1010E0004231515CC840704740020020083802403D
:1010F00098390008154810B5006810F00C02144823
:1011000013D04110042A0FD0082A0ED10F4C241FEF
:101110002268236802F03F025B0207D52068C0F313
:101120008810A0FB010106E0084610BD2168C1F34C
:101130008811A1FB00010023FFF742F82168C1F3E9
:101140000141491C4900B0FBF1F010BD08380240D4
:101150000024F4002DE9F84F04006ED02078DFF869
:101160004C93C007A9F104054AD009F104000168B5
:10117000C1F38101012908D00068C0F38100022871
:101180000AD1D9F80000400206D52868800337D577
:1011900060680028E1D033E06068B0F5803F10D08F
:1011A000B0F5A02F286810D020F48030286028687F
:1011B00020F4802028606068A8B1FFF741FE064651
:1011C0000DE0286840F48030F4E740F48020286087
:1011D000F7E700BFFFF734FE801B642873D8286848
:1011E0008003F7D50CE0FFF72BFE064605E000BFB5
:1011F000FFF726FE801B6428F0D828688003F7D408
:101200002078DFF8AC8280074FF0000A3ED5A7486F
:10121000001D016811F00C0F08D00068C0F38100B8
:1012200002280BD1D9F80000400207D428688007B3
:1012300016D5E068012800D112E033E1E068B8B1CA
:101240000120C8F80000FFF7FBFD064605E000BFDF
:10125000FFF7F6FD801B0228C0D828688007F7D565
:101260002868216920F0F80040EAC10028600DE0FC
:10127000C8F800A0FFF7E4FD064604E0FFF7E0FD34
:10128000801B02281FD828688007F7D42078000721
:1012900022D5864F87486169703771B1012101609D
:1012A000FFF7CEFD064604E0FFF7CAFD801B0228CB
:1012B00009D838688007F7D50EE0C0F800A0FFF71E
:1012C000BFFD064605E082E0FFF7BAFD801B02285D
:1012D0007DD838688007F7D42078400768D5DFF8D4
:1012E000CCB100270BF13C0BDBF80000C0000BD4A5
:1012F000DBF8001041F08051CBF80010DBF8000063
:10130000012700F0805000906B4E3068C00510D46B
:10131000306840F480703060FFF792FD009005E087
:10132000FFF78EFD0099401A022850D83068C0059A
:10133000F6D55E4EA0686C3601280FD005283068BF
:1013400010D020F001003060306820F004003060E0
:10135000A068B8B1FFF774FD00900FE0306840F06E
:101360000100F4E740F004003060F7E7FFF768FDA4
:101370000099411A41F28830814266D8306880076E
:10138000F4D50EE0FFF75CFD009007E0FFF758FD95
:101390000099411A41F28830814256D8306880075E
:1013A000F4D42FB1DBF8001021F08051CBF80010FD
:1013B000A069C8B33D49091D0968C1F3810102292B
:1013C0004AD00228504607D0C8F8600000E03CE050
:1013D000FFF736FD04463BE04746C8F86000FFF7DC
:1013E0002FFD064605E000BFFFF72AFD801B0228FF
:1013F0002BD828688001F7D4D4E907010843A16AF3
:101400002E4A490802EB0141626A41EA821108430F
:1014100094F82C1040EA0161C9F8001001203866E8
:10142000FFF70EFD044606E03EE000BFFFF708FDB3
:10143000001B022809D828688001F7D534E000BFD6
:10144000FFF7FEFC001B022802D90320BDE8F88F3D
:1014500028688001F4D427E00128F7D0D9F80000EB
:10146000E26900F4800191421CD1226A00F03F0140
:10147000914217D147F6C071626A0140B1EB821FF9
:1014800010D1A26A4FF0FF3300F4403103EB520257
:10149000B1EB024F06D194F82C1000F07060B0EB65
:1014A000016F01D00120D1E70020CFE704380240CE
:1014B00000004742800E4742007000400000FFFFDE
:1014C00010B5401EB0F1807F01D3012010BD4FF058
:1014D000E02460610F21601702F091F90020A06103
:1014E00007202061002010BD7047704770B590F84C
:1014F0003C20012A32D0012480F83C40022280F8AE
:101500003D2003685A689D6822F070060A683243DD
:101510005A60134B02689A4214D0B2F1804F11D036
:10152000104B9A420ED0104B9A420BD00F4B9A425E
:1015300008D00F4B9A4205D00E4B9A4202D00E4B68
:101540009A4204D1496825F080031943916080F8DC
:101550003D40002180F83C10084670BD022070BD5F
:10156000000001400004004000080040000C004062
:1015700000040140004001400018004010B5040084
:1015800003D094F83D0010B107E0012010BD002009
:1015900084F83C00204600F01FF8022084F83D004B
:1015A000211D206801F0FEFD012084F8460084F82A
:1015B0003E0084F83F0084F8400084F8410084F83D
:1015C000420084F8430084F8440084F8450084F81D
:1015D0003D00002010BD000008B500680B4988429E
:1015E00012D10B48016841F010010160006800222F
:1015F00000F01000009011463620FFF78FFCBDE888
:1016000008403620FFF77CBC08BD000000100040F9
:101610004038024090F83D10012901D00120704768
:10162000022180F83D100168CA6842F00102CA60D8
:1016300000681149884214D0B0F1804F11D00F4991
:1016400088420ED00E4988420BD00E49884208D0FD
:101650000D49884205D00D49884202D00C49884284
:1016600004D1816801F00701062903D0016841F027
:1016700001010160002070470000014000040040AB
:1016800000080040000C0040000401400040014000
:10169000001800402DE9F0410D46040003D094F8F5
:1016A0003D0018B108E00120BDE8F081002084F879
:1016B0003C00204600F040F8022084F83D002068FD
:1016C000816844F2070291438160211D206801F086
:1016D00069FD226890689169166A2B68AF690343B7
:1016E00040F20330814341EA0721A868EF690843CB
:1016F0004FF6FC418843E96840EA07200143286926
:101700002F6A000140EA0730084369686D6926F0D6
:10171000AA0646EA0515294393602268906154F8A9
:10172000460B0162012004F81F09E0752076E0767F
:101730002077A0750020B7E730B587B004461421A4
:101740006846FEF775FD214824681F4D00221F4999
:1017500010380223AC4216D10C6844F002040C602D
:10176000096801F002010591016841F00101016081
:101770000068694600F001000590C0200090CDE9A6
:101780000132134819E0134DAC421AD10C6844F0F1
:1017900004040C60096801F004010591016841F03E
:1017A000080101600068694600F0080005904FF4E8
:1017B00040500090CDE901320748CDE90323FFF7FF
:1017C00043FA07B030BD000000040040403802403A
:1017D0000000024000080040000C024070B590F884
:1017E0003E60044690F83F5090F8423090F8432015
:1017F000022021B104290ED0012E1BD114E0012EAC
:1018000018D1012B16D184F83E0084F84200012241
:101810000021206820E0012D0CD1012A0AD184F892
:101820003F0084F8430014E0012D03D1012B01D1C6
:10183000012A01D0012070BD84F83E0084F83F00E9
:1018400084F8420084F8430001220021206801F05E
:101850000DFD01220421206801F008FD20680168C7
:1018600041F001010160002070BD704770B5044671
:10187000006801694FF00005C943890715D4C168A4
:10188000C943890711D4E91E01610120207720682E
:1018900080698007204602D0FFF7E7FF04E000F0F0
:1018A000C1F8204600F062F9257720680169C94334
:1018B000490717D4C168C943490713D46FF004011D
:1018C0000161022020772068806910F4407F204663
:1018D00002D0FFF7CAFF04E000F0A4F8204600F0B1
:1018E00045F9257720680169C943090716D4C168FD
:1018F000C943090712D46FF0080101610420207761
:101900002068C0698007204602D0FFF7AEFF04E0E0
:1019100000F088F8204600F029F925772068016951
:10192000C943C90617D4C168C943C90613D46FF0A7
:1019300010010161082020772068C06910F4407F01
:10194000204602D0FFF791FF04E000F06BF820463C
:1019500000F00CF9257720680169C943C90708D14F
:10196000C168C943C90704D1891E0161204600F03E
:1019700063F920680169C943090609D4C168C943EC
:10198000090605D46FF0800101612046FFF7ACFD28
:1019900020680169C943490609D4C168C943490699
:1019A00005D46FF040010161204600F046F920683F
:1019B0000169C94389060BD4C168C943890607D4A4
:1019C0006FF0200101612046BDE87040FFF78DBD3A
:1019D00070BD000010B586B0044614216846FEF7BD
:1019E00027FC2068B0F1804F15D10C480021026817
:1019F00042F001020260006800F0010005900C2036
:101A000000900220CDE901010120CDE903106946D3
:101A10000348FFF719F906B010BD00003038024046
:101A200000000240704770B5044690F83C000D4637
:101A300001280AD0012084F83C0042B1042A18D0C1
:101A4000082A2AD00C2A4DD139E0022070BD206826
:101A500001F01AFC2068816941F008018161206869
:101A6000816921F004018161206881692A6911433B
:101A700011E0206801F038FC2068816941F40061C0
:101A800081612068816921F48061816120688169B8
:101A90002A6941EA0221816124E0206801F05AFCB0
:101AA0002068C16941F00801C1612068C16921F065
:101AB0000401C1612068C1692A69114311E02068ED
:101AC00001F07CFC2068C16941F40061C1612068BB
:101AD000C16921F48061C1612068C1692A6941EA54
:101AE0000221C161002084F83C0070BD10B50400E3
:101AF00003D094F83D0010B107E0012010BD002094
:101B000084F83C00204600F01FF8022084F83D00D5
:101B1000211D206801F046FB012084F8460084F86E
:101B20003E0084F83F0084F8400084F8410084F8C7
:101B3000420084F8430084F8440084F8450084F8A7
:101B40003D00002010BD000008B50068B0F1804FD6
:101B500008D10548016841F001010160006800F00A
:101B60000100009008BD00004038024070470000AE
:101B700010B50446022249B104290ED0082913D019
:101B800094F84100012816D0012010BD94F83E00C1
:101B90000128F9D184F83E200FE094F83F00012895
:101BA000F2D184F83F2008E094F840000128EBD1FE
:101BB00084F8402001E084F841200122206801F0EF
:101BC00055FB16492068164A884201D0904203D13D
:101BD000436C43F4004343642068884213D0B0F15F
:101BE000804F10D00F4988420DD00F4988420AD04B
:101BF0000E49884207D0904205D00D49884202D054
:101C00000C49884204D1816801F00701062903D0FC
:101C1000016841F001010160002010BD0000014099
:101C2000000401400004004000080040000C004097
:101C300000400140001800407047704770477047EF
:101C4000F8B5026804461068D168536910F00F0FA8
:101C50004FF0000553D003F0010601F490773743AD
:101C60005FD0C20705D0CA0503D5226C42F001023D
:101C70002264420705D5DA0703D0226C42F0020243
:101C80002264820705D5DA0703D0226C42F00402F1
:101C90002264020707D501F02002324303D0226CF0
:101CA00042F008022264226C002A34D0800604D557
:101CB000880602D5204601F031FC20684069216C7D
:101CC000C0F38010090700D430B3204601F005FCB2
:101CD0002068416949061BD5416921F040014161F5
:101CE000A06BA8B159490165A06BFEF729FE002839
:101CF00011D0A06B016D01B0BDE8F040084783062C
:101D00000FD58B060DD52046BDE8F84001F006BC86
:101D10002046FFF794FFF8BD2046FFF790FF2564AB
:101D2000F8BD266B2023012E53D1C60651D5CE0611
:101D30004FD5106850680090506940062BD5A16BB4
:101D4000086840680004000CEAD0A68D8642E7D9F6
:101D5000E085C869B0F5807F18D0D06820F4807025
:101D6000D0602068416921F001014161206841692A
:101D700021F04001416184F83E3025632068C1684C
:101D800021F01001C160A06BFEF793FDA08DE18DE5
:101D9000401A81B219E0A08DE18D401A81B2E08D28
:101DA0000028BDD00029BBD0D06820F49070D0604E
:101DB0002068426922F00102426184F83E302563C6
:101DC0002068C26822F01002C2602046FFF736FF8A
:101DD000F8BD05062BD50D0629D594F83D00212820
:101DE000F6D1A068B0F5805F01D12069B0B1206A5A
:101DF000411C2162216800784860E08C401E00048C
:101E0000000CE084E4D12068C16821F08001C16049
:101E10002068C16841F04001C160F8BD206A0088B7
:101E2000C0F308005060206A801C2062E5E740068D
:101E3000F3D54806F1D5D168204621F04001D160A4
:101E400084F83D3000F075FBF8BD00000D3400084B
:101E500070B5040004D094F83D00002510B106E0F0
:101E6000012070BD84F83C50204600F023F8242067
:101E700084F83D002068C16821F40051C16020460B
:101E800001F0A4FB2068016921F490410161206800
:101E9000416921F02A0141612068C16841F4005183
:101EA000C1602564202084F83D0084F83E000020B5
:101EB00070BD0000F0B587B0064614216846FEF7F5
:101EC000B7F9354F3068002534490222032307242F
:101ED000B84239D131481430076847F0100707601D
:101EE000006800F010000590086840F001000860EC
:101EF0000868694600F00100059058028DE8250049
:101F0000CDE903342648FEF79FFE274C2548206084
:101F10004FF00060C4E901054014C4E9035080108B
:101F20006561C4E90650256220466562FEF7EAFD58
:101F300008B1FEF7BCFCB463002211462520A6635D
:101F4000FEF7ECFF252023E0184EB04222D11348C3
:101F50001030066846F400360660006800F4003071
:101F60000590086840F0080008600868694600F0BD
:101F70000800059060208DE82500CDE903340C4869
:101F8000FEF762FE002211462620FEF7C7FF26203C
:101F9000FEF7B6FF07B0F0BD001001403038024038
:101FA0000000024040640240600400200044004001
:101FB000000C024090F83E30202B0ED159B152B1A6
:101FC00090F83C30012B08D0012380F83C300023EE
:101FD000036301F081BB012070470220704790F835
:101FE0003E30202B0ED159B152B190F83C30012B2C
:101FF00008D0012380F83C300023036301F0A4BB28
:10200000012070470220704770B5FE492DED0C8B02
:10201000006809689FEDFC8B9FEDFD9BFE4D88429B
:102020007ED1FE4C6968002621B900202654401C50
:102030001928FBDBF84800786B2803D06054491C52
:102040006960EEE0E07B3038FEF785FA41EC1A0B70
:10205000A07B3038FEF77FFA53EC182BFEF79AF985
:1020600053EC1A2BFEF7EFF841EC1B0B607930387C
:10207000FEF771FA41EC1A0B20793038FEF76BFA53
:1020800041EC1C0BA0783038FEF765FA41EC1D0BD3
:1020900060783038FEF75FFA53EC1D2BFEF7D3F86B
:1020A00053EC1C2BFEF7CFF853EC1A2BFEF7CBF8B2
:1020B00053EC1B2BFEF7A6FA3CD0A07C3038FEF781
:1020C0004AFA41EC1A0B607C3038FEF744FA53ECC4
:1020D000182BFEF75FF953EC1A2BFEF7B4F841EC1E
:1020E0001C0B207B3038FEF736FA41EC1B0BE07AF4
:1020F0003038FEF730FA41EC1A0B607A3038FEF7D0
:102100002AFA41EC1D0B207A3038FEF724FA53EC02
:102110001D2BFEF798F853EC1A2BFEF794F800E00D
:1021200088E053EC1B2BFEF78EF853EC1C2BFEF7CC
:1021300069FA75D160793038FEF70DFA53EC192B36
:10214000FEF79AF941EC1A0B20793038FEF703FAC2
:1021500053EC182BFEF790F941EC1C0BA0783038AB
:10216000FEF7F9F941EC1B0B60783038FEF7F3F914
:1021700053EC182BFEF70EF953EC1B2BFEF763F80C
:1021800053EC1C2BFEF75FF853EC1A2BFEF75BF8B1
:1021900041EC1A0B85ED06AB207B3038FEF7DBF9FE
:1021A00053EC192BFEF768F941EC190BE07A303843
:1021B000FEF7D1F953EC182BFEF75EF941EC1C0B3E
:1021C000607A3038FEF7C7F941EC1B0B207A3038C3
:1021D000FEF7C1F953EC182BFEF7DCF853EC1B2B80
:1021E000FEF731F853EC1C2BFEF72DF853EC192BAE
:1021F000FEF729F841EC180B85ED0C8B20782D2883
:1022000005D151EC1A0B81F00041C5E90601E079D6
:102210002D2805D151EC180B81F00041C5E90C01C6
:102220006E600122BDEC0C8BBDE870407A497548A8
:10223000FFF7D5BE794C00201934215C0A2955D00E
:10224000401C5828F9DBA86821187548CA7B82739E
:102250000A7CC2734A7C02748A7C4274CA7CC2744F
:10226000097D0175A0793038FEF775F953EC192B0B
:10227000FEF702F941EC1A0B60793038FEF76BF982
:1022800053EC182BFEF7F8F841EC1B0B2079303893
:10229000FEF761F941EC1D0BE0783038FEF75BF991
:1022A00053EC182BFEF776F841EC1C0BA078303875
:1022B000FEF751F953EC192BFEF76CF853EC1C2B7D
:1022C000FDF7C1FF53EC1D2BFDF7BDFF53EC1B2B9E
:1022D000FDF7B9FF53EC1A2BFDF7B5FF41EC100BDE
:1022E00085ED140B60782D2802D007E0A860ABE7DD
:1022F00051EC100B81F00041C5E91401607B3038CE
:10230000FEF729F953EC192BFEF7B6F841EC1A0B3E
:10231000207B3038FEF71FF953EC182BFEF7ACF892
:1023200041EC1B0BE07A3038FEF715F941EC1C0B41
:10233000A07A3038FEF70FF953EC182BFEF72AF885
:1023400041EC1D0B607A3038FEF705F953EC192B80
:10235000FEF720F853EC1D2BFDF775FF53EC1C2BFB
:10236000FDF771FF53EC1B2BFDF76DFF53EC1A2BA0
:10237000FDF769FF41EC100B85ED120B207A2D283B
:1023800005D151EC100B81F00041C5E91201207D0F
:102390003038FEF7E0F853EC192BFEF76DF841ECFE
:1023A0001C0BE07C3038FEF7D6F853EC182BFEF708
:1023B00063F841EC1B0BA07C3038FEF7CCF841EC05
:1023C0001A0B607C3038FEF7C6F853EC182BFDF77B
:1023D000E1FF41EC180B207C3038FEF7BCF853ECE1
:1023E000192BFDF7D7FF53EC182BFDF72CFF53ECFF
:1023F0001A2BFDF728FF53EC1B2BFDF724FF53ECA2
:102400001C2B0FE01C0400200000000000002440F2
:10241000000000000000594000000020440200209D
:1024200018020020FDF70FFF41EC100B85ED160B95
:10243000E07B2D2805D151EC100B81F00041C5E95E
:1024400016019FED0A0B53EC102B95ED160B51EC7A
:10245000100BFDF79FFF9FED071B53EC112BFEF7B1
:102460000BF8C5E91801BDEC0C8B70BD4417415445
:10247000FB2109400000000000806640704700001A
:102480002DE9F843044690F83D001F4616460D46D8
:1024900020284CD1C5B1BEB194F83C00012846D0EB
:1024A000012084F83C004FF00008C4F8408021204F
:1024B00084F83D00FEF7C4FCA6848146E684A0684B
:1024C000B0F5805F03D004E00120BDE8F883206907
:1024D00028B12E465FF0000584F83C800EE000260F
:1024E000FAE78021204601F04AF9A0B9AEB116F80A
:1024F000010B21684860E08C401EE084E08C4B4674
:102500004FF0000200970028EBD14FF04001204629
:1025100001F035F930B10320D7E735F8020BC0F3ED
:102520000800E6E7202084F83D000020CDE70220E7
:10253000CBE77047FEE7000070B586B0142168460F
:10254000FDF776FE1A480024016841F0040101609D
:10255000016801F004010591016841F0800101600A
:10256000016801F080010591016841F001010160FD
:10257000016801F001010591016841F00801016065
:1025800000680C4E00F008004CF203050590002294
:1025900029463046FEF74EFC01200095CDE90104A6
:1025A000694630460394FEF74FFB06B070BD00004D
:1025B000303802400008024010B58AB00024079469
:1025C0001C2168460894FDF733FE1A484FF08041FD
:1025D00001605421C0E901144FF47A71C0E9031479
:1025E0008461FFF783FA08B172B6FEE7079407A982
:1025F00010480894FEF77AFF08B172B6FEE7602033
:10260000CDE900040294082269460A480494FFF7C1
:102610000AFA08B172B6FEE70C2269460548FFF7D0
:1026200002FA08B172B6FEE70248FFF7D3F90AB022
:1026300010BD0000B802002010B58CB024216846FF
:10264000FDF7F6FD00241648099414490A94C0E9E0
:1026500000144FF6FF71C0E9024104618461032058
:10266000CDE900040120CDE902040494CDE9054040
:10267000079469460A480894FFF70CF808B172B647
:10268000FEE7099409A906480A94FEF72FFF0028DF
:1026900001D072B6FEE70CB010BD0000000400408F
:1026A0000003002010B58CB024216846FDF7C0FD62
:1026B00000241648099414490A94C0E900144FF6FE
:1026C000FF71C0E90241046184610320CDE9000487
:1026D0000120CDE902040494CDE905400794694640
:1026E0000A480894FEF7D6FF08B172B6FEE70994CF
:1026F00009A906480A94FEF7F9FE002801D072B62F
:10270000FEE70CB010BD00000008004048030020A8
:10271000FEE7FEE770477047FEF798BB30B593B011
:1027200030216846FDF784FD14210CA8FDF780FDDB
:102730001D480025016841F080510160006800F0EB
:10274000805011901948016841F48041016000688F
:10275000022400F4804011900120009000040190B8
:102760008001CDE9064008AA0420A82182E81300D0
:102770000B906846FEF7EEFC08B172B6FEE70CA9B6
:102780000F2081E831004FF4A0500F904FF480509B
:10279000109005210CA8FEF7F3FB002801D072B6BB
:1027A000FEE713B030BD000040380240007000402A
:1027B0000248016841F470010160704788ED00E053
:1027C0002DE9F04FFF482DED108B85B0FFF74EF847
:1027D000FC4848380068406AFDF7CEFEFA4C41ECF0
:1027E0001B0B84ED1ABB94ED1C0B53EC102BFDF767
:1027F000CBFD894649EC100B054651EC100BFDF75B
:10280000C8FE002800DA4042EF4F49F640414FF43D
:10281000804880379FEDED8BEE4E9FEDEFAB884209
:1028200015DA49EC105B9FEDEE1B51EC100B53ECED
:10283000112BFDF7AFFD53EC1A2BFDF7ABFD9FED10
:10284000EA1B53EC112BFDF717FEC7E902019FEDC0
:10285000E80B53EC102B97ED040B51EC100BFDF72C
:1028600099FD41EC190B9FEDE40B53EC102B97ED08
:10287000000B51EC100BFDF78DFD53EC192BFDF700
:10288000E2FC41EC190BD04884ED1E9B87ED009BC8
:1028900097ED020B53EC192B87ED040B80ED1CBB5D
:1028A00090ED06CB51EC1C0BFDF76EFD41EC1B0BC4
:1028B00087ED0CBB9FEDD20B53EC102B97ED0A0B61
:1028C00051EC100BFDF766FD97ED080B41EC1F0B6B
:1028D00053EC182B51EC100BFDF75CFD41EC1E0B7B
:1028E0009FEDC90B51EC1C0B53EC102BFDF752FD67
:1028F00041EC1D0B9FEDC60B51EC1C0B53EC102B48
:10290000FDF748FD53EC1D2BFDF79DFC53EC1E2BF2
:10291000FDF799FC53EC1F2BFDF736FD41EC100B36
:1029200051EC190B87ED060B53EC102BFDF72CFD2A
:1029300041EC1C0B87ED12CB9FEDB70B53EC102B2A
:1029400097ED100B8DED000B51EC100BFDF722FDF8
:1029500041EC1F0B9FEDB00B97ED0E9B53EC102B32
:1029600051EC190BFDF716FD41EC1E0B9FEDA40B6E
:1029700053EC102B97ED1C0B51EC100BFDF70AFDDF
:1029800097ED1A0B41EC1D0B53EC182B51EC100B6F
:10299000FDF700FD53EC1D2BFDF7F6FC53EC1E2B51
:1029A000FDF751FC53EC1F2BFDF7EEFC41EC1D0B2A
:1029B000854887ED18DB90ED080B51EC100B81F08A
:1029C000004153EC1C2BFDF7E5FC53EC1D2BFDF7F0
:1029D000E1FC934D95ED041B53EC112BFDF733FCFB
:1029E00041EC1F0B284680ED04FB9FED8E0B53EC52
:1029F000102B9DED000B51EC100BFDF7CBFC41ECC7
:102A00001E0B9FED8A0B51EC190B53EC102BFDF7AD
:102A1000C1FC41EC100B8DED000B9FED790B2846AE
:102A200053EC102B90ED020B51EC100BFDF7B2FCA8
:102A300041EC1D0B284653EC182B90ED000B51EC8C
:102A4000100BFDF7A7FC53EC1D2BFDF79DFC9DED36
:102A5000000B53EC102BFDF7F6FB53EC1E2BFDF790
:102A6000F2FB41EC1D0B584887ED1EDB90ED0A0B85
:102A700051EC100B81F0004153EC1C2BFDF78AFC4C
:102A800053EC1D2BFDF786FC41EC100B284690ED16
:102A9000061B51EC100B53EC112BFDF7D4FB41EC52
:102AA0001C0B284653EC192B80ED06CB51EC1B0B6D
:102AB000FDF76AFC53EC1F2BFDF76CFC41EC1D0B82
:102AC000284653EC192B80ED08DB51EC1B0BFDF76E
:102AD000BAFB41EC190B9FED570B3B4853EC102B05
:102AE00090ED040B51EC100BFDF754FC53EC1C2B38
:102AF000FDF750FC53EC192BFDF74CFC41EC190B86
:102B0000284653EC1D2B80ED0A9B90ED0E0B51ECEB
:102B1000100BFDF798FB53EC192BFDF794FB41ECE0
:102B2000100B284680ED0C0B9FED441B51EC100B55
:102B300053EC112BFDF766FD13D29FED429B95EDF3
:102B40000C0B53EC192B51EC100BFDF75BFD01D274
:102B500085ED0C9B0122D1033046FEF76BF9002274
:102B600013E09FED3A9B95ED0C0B53EC192B51ECB8
:102B7000100BFDF75FFD01D285ED0C9B00224FF499
:102B800000413046FEF756F9012241463046FEF735
:102B900051F995ED0C9B51EC190BFDF719FDDFF880
:102BA0002490A9F1D809D9F80010086485ED0E9B8E
:102BB00097ED0E0B87ED100B97ED0C0B87ED0E0BC1
:102BC00048E00000900300200000002023DBF97E95
:102BD0006ABCFE3F000802400000000000005940AF
:102BE0000000000000004E400000000000E0BC407B
:102BF000632827DA5548993FD93D7958A835EF3FE2
:102C0000F0A7C64B3789ED3FE527D53E1D8F493FDD
:102C100005C078060DFD533FEA95B20C71ACB33F89
:102C200000010020FCA9F1D24D62303FE527D53EDE
:102C30001D8F393F000000000000E03F0000000051
:102C400000000000000000000067B0C000000000AD
:102C50000067B04097ED140B09F1480087ED160BA3
:102C600097ED120B87ED140B97ED080B87ED0A0B10
:102C700097ED060B87ED080B97ED1A0B87ED1C0BF4
:102C800097ED180B87ED1A0B95ED000B85ED020BF8
:102C900097ED1E0B85ED000B0068406AFDF76CFC9C
:102CA00041EC190B85ED109B95ED120B53EC102B9D
:102CB000FDF76AFB884648EC100B074651EC100BF9
:102CC000FDF767FC002800DA4042DFF8D0A449F69F
:102CD00040410AF1800B884215DA48EC107B1FED69
:102CE000401B51EC100B53EC112BFDF753FB53EC35
:102CF0001A2BFDF74FFB1FED441B53EC112BFDF777
:102D0000BBFBC5E918011FED460B53EC102B95EDED
:102D10001A0B51EC100BFDF73DFB41EC1B0B1FEDAB
:102D20004A0B53EC102B95ED160B51EC100BFDF7E5
:102D300031FB53EC1B2BFDF786FA41EC1B0BA04635
:102D400085ED14BB85ED16BB95ED180B53EC1B2BD5
:102D500085ED1A0B85ED129B94ED0CDB274651ECAB
:102D60001D0BFDF711FB41EC190B54468AED029B3C
:102D70001FED5DCB9AED000B53EC1C2B51EC100BAF
:102D8000FDF708FB41EC100B53EC182B8DED000BFD
:102D900095ED1E0B51EC100BFDF7FCFA41EC1E0BF0
:102DA0001FED670B51EC1D0B53EC102BFDF7F2FAE6
:102DB00041EC1F0B1FED6A0B51EC1D0B53EC102B5C
:102DC000FDF7E8FA53EC1F2BFDF73DFA53EC1E2BF1
:102DD000FDF739FA9DED000B53EC102BFDF7D4FAFB
:102DE00041EC100B51EC1B0B85ED1C0B53EC102B25
:102DF000FDF7CAFA41EC1D0B84ED08DB1FED7ABB31
:102E000094ED060B53EC1B2B8DED000B51EC100BCE
:102E1000FDF7C0FA41EC100B53EC1B2B8DED020BB0
:102E200094ED04BB51EC1B0BFDF7B4FA94ED120BBF
:102E300041EC1F0B53EC1C2B51EC100BFDF7AAFAC5
:102E400094ED100B41EC1E0B53EC182B51EC100BB6
:102E5000FDF7A0FA53EC1E2BFDF796FA53EC1F2B4F
:102E6000FDF7F1F99DED020B53EC102BFDF78CFAF9
:102E700041EC1E0B84ED0EEB97ED0E0B51EC100B9D
:102E800081F0004153EC1D2BFDF784FA53EC1E2B0F
:102E9000FDF780FA94ED1A1B53EC112BFDF7D3F9D3
:102EA00041EC100B84ED1A0B8DED020B1FEDA30B03
:102EB00053EC102B9DED000B51EC100BFDF76AFA53
:102EC00041EC1E0B1FEDA70B51EC1B0B53EC102B11
:102ED000FDF760FA94ED180B41EC1F0B53EC1C2B23
:102EE00051EC100BFDF756FA94ED160B41EC1C0B50
:102EF00053EC182B51EC100BFDF74CFA53EC1C2B38
:102F0000FDF742FA53EC1F2BFDF79DF953EC1E2BF6
:102F1000FDF799F941EC180B84ED148B97ED100B2C
:102F200051EC100B81F0004153EC1D2BFDF732FAF0
:102F300053EC182BFDF72EFA94ED1C1B53EC112BC0
:102F4000FDF781F941EC180B53EC1B2B84ED1C8B26
:102F500051EC190BFDF718FA9DED020B53EC102BF9
:102F6000FDF718FA41EC1C0B53EC1B2B84ED1ECB28
:102F700051EC190BFDF767F941EC190B1FEDD30B61
:102F800053EC102B97ED040B51EC100BFDF702FAEC
:102F900053EC182BFDF7FEF953EC192BFDF7FAF95A
:102FA00041EC180B5F468BED008B9BED040B53EC53
:102FB0001C2B51EC100BFDF746F953EC182BFDF7C9
:102FC00042F941EC100B87ED020B1FEDE41B53ECB3
:102FD000112BFDF717FB13D21FEDE68B97ED020BBC
:102FE00053EC182B51EC100BFDF70CFB01D287EDC5
:102FF000028B012202213046FDF71CFF002212E065
:103000001FEDEE8B97ED020B53EC182B51EC100BD0
:10301000FDF710FB01D287ED028B00220221304622
:10302000FDF708FF012201213046FDF703FF97ED70
:10303000028B51EC180BFDF7CBFAD9F80010C863DE
:1030400087ED048B94ED040B53EC1A2B84ED060BE7
:1030500094ED020B84ED040B94ED0A0B84ED0C0B44
:1030600094ED080B84ED0A0B95ED1E0B84ED000B1F
:1030700095ED1C0B85ED1E0B94ED100B84ED120BE2
:1030800094ED0E0B84ED100B94ED160B84ED180BE4
:1030900094ED140B84ED160B98ED1E0B51EC100BF8
:1030A000FDF778F9FDF775FA95ED140B044653EC2E
:1030B0001A2B51EC100BFDF76DF9FDF76AFA01467A
:1030C000002C01DB2B2200E02D223448983000290F
:1030D000027001DB2B2200E02D22C271002C00DAED
:1030E0006442002900DA49424FF47A7394FBF3F208
:1030F0003032D2B242706FF07C0512FB05F204EB65
:10310000C2024BF680355719642697FBF6F7303725
:10311000FFB287706FF0180C17FB0CF702EB8702F9
:103120004CF6406702EB070C0A229CFBF2FC0CF108
:10313000300C80F804C094FBF2FC02FB1C443034D9
:10314000447191FBF3F43034E4B204726FF07C0C00
:1031500014FB0CF401EBC404254495FBF6F5303563
:10316000EDB245726FF0180615FB06F504EB850409
:103170003C4494FBF2F43034C47291FBF2F402FB51
:1031800014113031017305B004491922BDEC108BC4
:103190009831BDE8F04F0248FFF772B98001002076
:1031A0001C040020F0B50268254C264D264E274F02
:1031B000274B4FF0804CA04209D0604507D0A84271
:1031C00005D0B04203D0B84201D0984204D122F0D9
:1031D000700E4A6842EA0E02A0421BD0604519D028
:1031E000A84217D0B04215D0B84213D0984211D09F
:1031F000184DA8420ED0184DA8420BD0174DA8422A
:1032000008D0174DA84205D0164DA84202D0164D41
:10321000A84203D122F44075CA682A434D6922F0BE
:1032200080022A4302608A68C2620A688262A042FF
:1032300001D0984201D10969016301214161F0BDCA
:10324000000001400004004000080040000C004065
:10325000000401400040014000440140004801409A
:1032600000180040001C00400020004010B501F094
:103270001F030121046A99408C430462016A9A4049
:103280001143016210BD0000F0B5026A22F0010294
:103290000262036A42688469124E24F073050C6866
:1032A0002C4323F002058B682B430D4DA84201D01F
:1032B000B04205D123F00807CB683B4323F0040359
:1032C000A84201D0B04205D14D6922F440721543A5
:1032D0008A692A4342608461496841630362F0BDA0
:1032E0000000014000040140F0B5026A22F0100223
:1032F0000262026A436884690D6824F4E64444EA81
:1033000005248D6822F0200242EA05120F4D104E6E
:10331000A84201D0B04206D1CF6822F0800242EA32
:10332000071222F04002A84201D0B04207D14D69F5
:1033300023F4406343EA85038D6943EA85034360D0
:103340008461496881630262F0BD000000000140B1
:1033500000040140F0B5026A22F480720262026A3F
:103360004368C46922F4007224F073050C68124E9D
:103370002C438D6842EA05220E4DA84201D0B0428E
:1033800006D1CF6822F4006242EA072222F480626A
:10339000A84201D0B04207D14D6923F4405343EA1B
:1033A00005138D6943EA05134360C4614968C1632D
:1033B0000262F0BD000001400004014030B5026A25
:1033C00022F480520262046A4268C3690D6823F4E1
:1033D000E64343EA05238D6824F4005444EA0534A7
:1033E000084DA84202D0084DA84204D14D6922F4EC
:1033F000804242EA85124260C36149680164046206
:1034000030BD0000000001400004014010B5806B99
:103410000021C185C184FEF712FC10BD70B5846B1C
:103420002068406994F83D10C0F3C01000252129A0
:1034300004D118B1E584204600F067F8206840699F
:1034400094F83E10C0F38010222904D118B1E5850C
:10345000204600F042F8206C40F010002064204626
:10346000FEF7EDFB70BD10B50146806B0968096879
:10347000C9051BD40021C1850168CA6822F4807285
:10348000CA6001684A6922F001024A6101684A691A
:1034900022F040024A61202180F83E10016B012990
:1034A00004D10168CA6822F01002CA60016B0129C8
:1034B00002D0FEF7A9FD10BD818DFEF7BFFB10BD48
:1034C00010B5806B016B012902D0FEF7D7FF10BD4C
:1034D000818D4908FEF7B2FB10BD0168CA6822F46D
:1034E0009072CA6001684A6922F001024A61016B68
:1034F000012904D10168CA6822F01002CA602021A3
:1035000080F83E100021016370470168CA6822F00C
:10351000C002CA60202180F83D10704710B50446F3
:1035200090F83E00222801D0022010BDA1684FF47F
:103530008052914201D1206920B1A06A91421BD0F2
:1035400049B10AE02168A06A4968C1F30801018015
:10355000A06A801C08E0216971B12168496801F006
:103560007F010170A06A401CA062E08D401E000433
:10357000000CE08503D01CE021684968F1E7206871
:10358000C16821F02001C1602068C16821F4807108
:10359000C1602068416921F001014161202084F867
:1035A0003E00206B012806D02046FEF72DFD0020AE
:1035B0002063002010BD2068C16821F01001C160A7
:1035C000A18D2046FEF73AFBF1E7000070B50446F6
:1035D00000680169E26821F44051114301612169E9
:1035E000A068E26908436169114308432168CA6819
:1035F00049F20C639A430243CA6020684169A26998
:1036000021F440711143416131492068884202D060
:103610003049884202D1FDF75DFD01E0FDF74AFD2A
:10362000E2690023192164253226B2F5004F626851
:1036300028D0A0FB0101930F9200FCF7C1FD0146C9
:10364000B0FBF5F06FF01802504301EB800006EB81
:103650000010B0FBF5F000F0F002B1FBF5F002EB6A
:103660000012B1FBF5F06FF01803584301EB800036
:1036700006EB0010B0FBF5F000F00F0021681044DD
:10368000886070BDA0FB010192185B41FCF798FDBA
:103690000146B0FBF5F00201B1FBF5F06FF0180345
:1036A000584301EB800006EBC000B0FBF5F000F0E2
:1036B000F80002EB4002B1FBF5F0584301EB80004B
:1036C00006EBC000B0FBF5F000F00700D6E7000005
:1036D000001001400014014038B581628285002548
:1036E000134604460564222084F83E00A26B13486A
:1036F000D063A26B12481064A26B1248D064A06B16
:103700000A4605652168A06B091DFDF765FA20686A
:1037100001684168009184F83C50C16841F48071AF
:10372000C1602068416941F001014161206841693F
:1037300041F040014161002038BD000067340008BD
:10374000C13400081D34000881628285C2850021D1
:103750000164222280F83E2080F83C100168CA688B
:1037600042F48072CA6001684A6942F001024A610B
:103770000068C16841F02001C160002070472DE958
:10378000F041984617460E460446069D1DE0681C0B
:103790001BD02DB1FDF754FBA0EB0800A84214D9B3
:1037A0002068C16821F4D071C1602068416921F0AE
:1037B00001014161202084F83D0084F83E00002092
:1037C00084F83C000320BDE8F0812068006836EAF8
:1037D000000004D00020B842D9D00020F3E7012037
:1037E000F9E700000148FEF72BBA0000D8030020DB
:1037F0000148FEF725BA00001C040020FEE7090777
:10380000090E002804DB00F1E02080F80014704766
:1038100000F00F0000F1E02080F8141D704702E076
:1038200008C8121F08C1002AFAD17047704700204B
:1038300001E001C1121F002AFBD170471CB5FDF742
:103840000DFBFEF76BFFFEF777FE4648002401688C
:1038500041F4800101600068224600F4800000907D
:1038600021463A20FDF75AFB3A20FDF749FBFEF7C7
:10387000A3FEFEF7E1FEFEF715FF3C4800943A492F
:103880000194016042F2CF01C0E901146321846117
:10389000C160FDF773FE08B172B6FEE70094694699
:1038A00032480194FDF722FE08B172B6FEE72F48B8
:1038B0002F498C304FF4E1350160C0E901540C26EA
:1038C000C460C0E904468461C461FEF7C1FA08B16E
:1038D00072B6FEE72548274948300160C0E9015427
:1038E000C460C0E904468461C461FEF7B1FA08B15E
:1038F00072B6FEE71D480821D838FEF739F91B4893
:103900000C21D838FEF734F9184804219038FDF717
:1039100065FF164804214838FDF760FF1348FDF79E
:1039200079FE12484FF47A73192213498C30FEF74E
:10393000A7FD11482E212F22C1708271817242731E
:1039400081740A214175A0F50671084801228C3066
:10395000FEF745FB0949582201F27B10FEF72AFBCE
:10396000FEE70000303802400010004090030020C5
:103970000044004000100140180200205D020020B9
:1039800000061016000610160000000000000000DF
:1039900001020304060708090000000001020304F5
:1039A000C03900080000002044020000A4070008FD
:1039B000F4390008440200207C0600002E3800087C
:1039C000011080097B14AE47E17A843F6809DBF976
:1039D0007E6ABC74833F08091E1801FF01C9000BF1
:1039E00012636F6E6E65637465640A320182101330
:0439F00024F40000BB
:040000050800018965
:00000001FF
